:0420000071EF10F07C
:08200800046ED8CF05F0E0CF13
:1020100006F00001E9CF0CF0EACF07F0E1CF08F0BD
:10202000E2CF09F0D9CF0AF0DACF0BF0F3CF12F0FC
:10203000F4CF13F0FACF14F0F5CF15F0F6CF16F079
:10204000F7CF17F000C00EF001C00FF002C010F083
:1020500003C011F0F2AA30EF10F0F2B457EF10F015
:102060000EC000F00FC001F010C002F011C003F06C
:102070000CC0E9FF07C0EAFF078E08C0E1FF09C0F6
:10208000E2FF0AC0D9FF0BC0DAFF12C0F3FF13C092
:10209000F4FF14C0FAFF15C0F5FF16C0F6FF17C015
:1020A000F7FF045006C0E0FF05C0D8FF100094946D
:1020B0008B841B80160ED76E940ED66EF29430EF82
:1020C00010F0010E1D5E0CE3EA6A1D0EE96EEF5082
:1020D00007E0020E006E002EFED700D0EF2EF9D7DB
:1020E0001200F86AD09E078E700ED36ED26A9B6A79
:1020F0000F015B6B5C6B5D6B5E6B5F6B9A6A996AE1
:10210000986AFB0E946E810ED56EF28AC00EF212A2
:10211000C150F00BC16E010E5B6F000E5F6F5C6F04
:102120005D6F5E6FC050C00B0709C06EC08EC2806D
:10213000000E016EC250830B0110C26E1BA013D0A3
:102140001AC01CF01C2A1C06D8B405D01D6800015A
:10215000B8DF0F01F8D719C01DF00001B2DF949469
:102160008B941B900F011BB00ED0C282C2B2FED75F
:10217000C4CF1AF0C3CF19F0D89019361A36F40E1E
:0E2180001926010E1A221BA0FED7D8D7030085
:020000040030CA
:0E00000023C85E3C00D3A1000FC00FE00F40EC
:00000001FF
;PIC18F45K50
;CRC=3969  CREATED="01-dic.-20 12:41"
